:020000040800F2
:10000000A017002009080008D9050008DB05000832
:10001000DF050008E3050008E70500080000000010
:10002000000000000000000000000000EB050008D8
:10003000ED05000800000000EF050008F1050008CC
:1000400023080008230800082308000823080008E4
:1000500023080008230800082308000823080008D4
:1000600023080008230800082308000823080008C4
:1000700023080008230800082308000823080008B4
:1000800023080008230800082308000823080008A4
:100090002308000823080008230800082308000894
:1000A0002308000823080008230800082308000884
:1000B0006B4D0008230800082308000823080008E7
:1000C0002308000823080008230800082308000864
:1000D0002308000823080008230800082308000854
:1000E0002308000823080008230800082308000844
:1000F0002308000823080008230800082308000834
:100100002308000823080008230800082308000823
:100110002308000823080008230800082308000813
:100120002308000823080008230800082308000803
:1001300023080008230800082308000823080008F3
:1001400023080008230800082308000823080008E3
:1001500023080008230800082308000823080008D3
:1001600023080008230800082308000823080008C3
:1001700023080008230800082308000823080008B3
:10018000230800082308000800F002F800F06AF8CD
:100190000AA090E8000C82448344AAF10107DA45E2
:1001A00001D100F05FF8AFF2090EBAE80F0013F0CA
:1001B000010F18BFFB1A43F0010318470853000052
:1001C000285300000A444FF0000C10F8013B13F0D4
:1001D000070408BF10F8014B1D1108BF10F8015BA0
:1001E000641E05D010F8016B641E01F8016BF9D193
:1001F00013F0080F1EBF10F8014BAD1C0C1B09D1EA
:100200006D1E58BF01F801CBFAD505E014F8016B5B
:1002100001F8016B6D1EF9D59142D6D370470000ED
:100220000023002400250026103A28BF78C1FBD8FF
:10023000520728BF30C148BF0B607047642904F0E3
:100240004386782904F07C86632905F08F80732922
:1002500005F09480002070471FB505F0F6F81FBD2B
:1002600010B510BD05F0B8F81146FFF7F5FF00F026
:1002700065F805F0D6F803B4FFF7F2FF03BC00F011
:100280005FF90000102061494883704710205F49E2
:100290000883704710B50446204604F045FC10BDA5
:1002A00010B504F05AFC10BD00B585B058490020C7
:1002B00004F0A1F95649012004F09DF903A955A0C5
:1002C00004F0A6FD524841790079514AD278CDE92F
:1002D000002002914E4883784278017853A004F0C0
:1002E00097FD4B48407A00904948037AC27981795A
:1002F00058A004F08DFD4648407C00904448037CA3
:10030000C27B817B58A004F083FD4148407B009074
:100310003F48037BC27A817A58A004F079FD3C48BB
:10032000407D00903A48037DC27C817C58A004F057
:100330006FFD5CA004F06CFD05B000BD86B000BF91
:1003400000245F4B0FCBCDE90423CDE90201FF2050
:100350005C4981F8020404F077FB04F019FB04F017
:1003600085FB04F037FD02F0E7FB574802F04BFC39
:1003700002F0ECFC18B155A004F04AFD02E057A0D1
:1003800004F046FD02F070FC02F07AFCAFF20311BB
:10039000AFF20F1003F03FFEAFF20711AFF2FF0014
:1003A00003F05EFE02A9012004F008F8401C20B909
:1003B0004EA004F02DFD00BFFEE7FFF775FF002300
:1003C00040F6B8320221204602F0C6FD09E04E4850
:1003D00000884E4B40F2054200210090204603F079
:1003E0000BF9F4E701B54A490098086000BF484896
:1003F00000680028FBD108BD4548006820B144488A
:100400000068401E4249086070470000000002403A
:100410000E0400200D0A3D3D3D202573204E45541D
:1004200020434F4E46203D3D3D0D0A004D41433A8D
:1004300020253032583A253032583A253032583A51
:10044000253032583A253032583A253032580D0A84
:10045000000000005349503A2025642E25642E25C3
:10046000642E25640D0A00004741523A2025642E6F
:1004700025642E25642E25640D0A00005355423A4A
:100480002025642E25642E25642E25640D0A000087
:10049000444E533A2025642E25642E25642E25646F
:1004A0000D0A00003D3D3D3D3D3D3D3D3D3D3D3D59
:1004B0003D3D3D3D3D3D3D3D3D3D0D0A00000000C3
:1004C0005454000804000020A008002053657475EF
:1004D0007020506173732E0D0A000000536574750F
:1004E00070204661696C2E0D0A00000057495A437E
:1004F00048495020496E697469616C697A65642065
:100500006661696C2E0D0A000C04002007040020AF
:100510000000002070B504460D46204600F03FF86C
:1005200070BD10B5044600F045F810BD01464FF00F
:10053000FF30704710B50446204600F030F810BD7B
:1005400000BFFEE72148006840F001001F49086035
:100550001E481430006840F010001C491431086037
:100560001B48406A20F47F6119484162406A40F4A8
:10057000EE6117484162006820F470101449086069
:100580000846006840F420100860D0201149088116
:1005900000208882088242F20C008881704700BFE8
:1005A0000C49098801F080010029F9D0C1B2094A3B
:1005B000918070470748008800F0200010B105487E
:1005C000808870474FF0FF30FBE700003038024072
:1005D0000000024000100140704700BFFEE700BF6E
:1005E000FEE700BFFEE700BFFEE7704770477047B9
:1005F00010B5FFF701FF10BD0CB500200190009071
:100600007648006840F480307449086000BF734841
:10061000006800F4003000900198401C01900098A0
:1006200018B90198B0F5A04FF1D16C48006800F4FA
:10063000003010B10120009001E0002000900098EF
:10064000012846D165484030006840F08050634939
:10065000403108606248006840F4404060490860EA
:100660005E48083000685D49083108600846006847
:1006700040F4004008600846006840F4A05008605C
:100680005848091F0860081F006840F08070091F63
:10069000086000BF5148006800F000700028F9D0E1
:1006A00040F20570504908604C480830006820F05E
:1006B00003004A49083108600846006840F002001B
:1006C000086000BF45480830006800F00C000828AA
:1006D000F8D10CBD10B54548006840F4700043499E
:1006E00008603E48006840F001003C490860002076
:1006F0003A4908310860394800683D49084037499F
:1007000008603C48091D0860081F006820F480202C
:10071000091F0860002031490C310860FFF76CFFA9
:100720004FF0006031498039086010BD70B500207D
:100730000022022300240221284D08352D6805F0EF
:100740000C0020B1042806D0082834D107E02A4D37
:100750002A4E356033E02A4D284E35602FE01F4D7C
:100760002D1D2D68C5F380541C4D2D1D2D6805F0E1
:100770003F0154B1224DB5FBF1F5184E361D3668D8
:10078000C6F3881605FB06F209E01B4DB5FBF1F533
:10079000124E361D3668C6F3881605FB06F20F4D5D
:1007A0002D1D2D68C5F301456D1C6B00B2FBF3F5E3
:1007B000124E356003E0104D104E356000BF00BF93
:1007C000064D08352D68C5F303150E4E705D0B4DB3
:1007D0002D68C540094E356070BD000000380240EC
:1007E0000070004008544007003C024088ED00E0E3
:1007F000FFFFF6FE103000240024F4003004002037
:1008000000127A0034040020094880470948004754
:10081000FEE7FEE7FEE7FEE7FEE7FEE7FEE7FEE7B0
:10082000FEE7FEE704480549054A064B704700000D
:10083000D506000889010008A0110020A01700209B
:10084000A0130020A013002032490143324A116056
:10085000704770B5002100230F22C4781CB32E4CC2
:10086000246804F4E064C4F5E064C4F30721C1F132
:100870000404E3B20A4144789C40E1B28478144015
:1008800021430C07210E254C05786155047804F0AE
:100890001F050124AC4005786D11AD0005F1E02580
:1008A000C5F8004109E0047804F01F050124AC40BC
:1008B0001B4D0678761145F8264070BD194A0A404E
:1008C0000243154B1B1F1A60704739B1124A121DA3
:1008D00012680243104B1B1D1A6006E00E4A121DDF
:1008E000126882430C4B1B1D1A607047042808D104
:1008F0004FF0E021096941F004014FF0E02211615D
:1009000007E04FF0E021096921F004014FF0E022F7
:10091000116170470000FA050CED00E000E400E012
:1009200080E100E080FFFF1F016821F0010101600C
:100930000021016041608160C1600161212141614C
:10094000DB49884204D13D21D94A103A91608CE0BC
:10095000D7491831884205D14FF47461D44A103A0E
:10096000916082E0D2493031884205D14FF4741150
:10097000CF4A103A916078E0CD494831884205D19C
:100980004FF07461CA4A103A91606EE0C849603114
:10099000884204D1C749C64A103AD16065E0C449CB
:1009A0007831884204D1C449C14A103AD1605CE030
:1009B000BF499031884204D1C049BD4A103AD16044
:1009C00053E0BB49A831884205D14FF03D51B84AA8
:1009D000103AD16049E0BA49884204D13D21B84A71
:1009E000083A116041E0B6491831884205D14FF408
:1009F0007461B34A083A116037E0B1493031884236
:100A000005D14FF47411AE4A083A11602DE0AC499B
:100A10004831884205D14FF07461A94A083A116003
:100A200023E0A7496031884204D1A249A44A121F99
:100A300011601AE0A2497831884204D19E49A04A47
:100A4000121F116011E09E499031884204D19B49E8
:100A50009B4A121F116008E09949A831884204D1CD
:100A60004FF03D51964A121F1160704710B5002299
:100A70000268944B1A40CC680B6823434C692343AB
:100A80008C692343CC6923430C6A23434C6A234378
:100A90008C6A23434C6B23438C6B23431A430260C1
:100AA000426922F00702D1E90B3423431A43426121
:100AB0000B6943604B6883608B68C36010BD002185
:100AC000016041608160C160016141618161C1611A
:100AD000016241628162C162016341638163704767
:100AE00021B1026842F00102026003E0026822F0D4
:100AF00001020260704721B1026842F400420260C4
:100B000003E0026822F400420260704721B10268EB
:100B100042F02002026003E0026822F0200202603C
:100B20007047416070470146486880B2704722B103
:100B3000036843F40023036003E0036823F4002305
:100B400003600161704721B1026842F480220260B3
:100B500003E0026822F48022026070470AB101615A
:100B600000E0C1607047014600200A6802F40022DC
:100B70000AB1012000E000207047014600200A6809
:100B800002F001020AB1012000E000207047014696
:100B900000204A6902F03800704730B503460A4623
:100BA00000200024464DAB4202D24149103901E0F9
:100BB0004349103902F000550DB14C6800E00C6853
:100BC000414D2C4004EA02050DB1012000E0002057
:100BD00030BD02463A4B9A4202D23548103801E005
:100BE0003748103801F000531BB1374B0B40C3603E
:100BF00002E0354B0B408360704710B501F0800375
:100C00004BB122B1436943F08003436103E0436980
:100C100023F08003436180290BD02AB1036801F0DF
:100C20001E042343036004E0036801F01E04A34391
:100C3000036010BD70B50246002000240025204E40
:100C4000B24202D21A4B103B01E01D4B103B1F4E2B
:100C50000E4036B11E2606EAD124166806EA0405BF
:100C600002E0566906F0800501F000560EB15C689E
:100C700000E01C68144E344004EA010616B10DB1C0
:100C8000012000E0002070BD02460D4B9A4202D2C6
:100C90000748103801E00A48103801F000531BB132
:100CA000094B0B40C36002E0074B0B408360704769
:100CB000106002403D000020400F002000003D2059
:100CC000106402403F801CF07D0F7D0F3C0F3C0FF5
:100CD00010B504469848844208D10121084600F026
:100CE00086FB0021012000F082FB76E093488442DD
:100CF00008D10121022000F07AFB0021022000F03F
:100D000076FB6AE08E48844208D10121042000F07D
:100D10006EFB0021042000F06AFB5EE089488442FB
:100D200008D10121082000F062FB0021082000F01A
:100D30005EFB52E08448844208D10121102000F07B
:100D400056FB0021102000F052FB46E07F48844211
:100D500008D10121202000F04AFB0021202000F0D2
:100D600046FB3AE07A48844208D10121402000F055
:100D70003EFB0021402000F03AFB2EE07548844203
:100D800008D10121802000F032FB0021802000F0FA
:100D90002EFB22E07048844208D10121801500F02A
:100DA00026FB0021A01500F022FB16E06B488442D0
:100DB00008D10121401500F01AFB0021601500F058
:100DC00016FB0AE06648844207D10121001500F0B5
:100DD0000EFB0021201500F00AFB10BDF0B50A46FD
:100DE00000210023002400BF3DE0012505FA01F3A6
:100DF000156805EA03049C4234D105684F000326B8
:100E0000BE40B543056015794E00B54006683543D0
:100E100005601579012D02D01579022D16D185684E
:100E20004F000326BE40B543856055794E00B5405E
:100E3000866835438560456801268E40B543456028
:100E4000456896798E40B6B235434560C5684F0017
:100E50000326BE40B543C560D5794E00B540C6688F
:100E60003543C560491C1029BFD3F0BD4FF6FF7153
:100E700001600021017141718171C171704708B534
:100E80004FF480320092009A0A430092009AC261A5
:100E9000C161009AC261C2690092C269009208BD34
:100EA0000246002013690B400BB1012000E0002036
:100EB00070470146086980B27047024600205369B6
:100EC0000B400BB1012000E000207047014648694B
:100ED00080B2704701837047418370470AB1018334
:100EE00000E0418370474161704742694A40426176
:100EF0007047F0B5002300244D07ED0E02FA05F30C
:100F0000CE1000F1200555F826504E07F70E0F269B
:100F1000BE40B543CF1000F1200646F82750CE1052
:100F200000F1200555F8265045EA0304CE1000F1E3
:100F3000200545F82640F0BD0000024000040240B4
:100F400000080240000C0240001002400014024061
:100F500000180240001C0240002002400024024011
:100F600000280240F948006840F00100F749086095
:100F70000020F64908310860F4480068F449084048
:100F8000F2490860F348091D0860F348EF498431CD
:100F90000860F0481038091D0860EC48006820F42B
:100FA0008020EA4908600020E8490C310860E749E0
:100FB0008C31086070470021E44A921C1170114680
:100FC0000870704710B501460022002300204A1126
:100FD000012A02D1DD4C236808E0022A03D1DB4C50
:100FE0007034236802E0D94C7434236801F01F0286
:100FF000012494401C400CB1012000E0002010BDF1
:1010000038B5002000900024002500BF3120FFF7F4
:10101000D9FF05460098401C00900098B0F5A04FFD
:1010200001D0002DF2D03120FFF7CCFF08B1012410
:1010300000E00024204638BD01460020C34A106865
:1010400020F0F80040EAC10010607047C349086012
:1010500070470021BD4A703211701170012802D012
:1010600004280AD104E00121B84A7032117005E069
:101070000521B64A7032117000E000BF00BF704712
:10108000B7490860704770B5049C41EA8215012693
:10109000C6EB530645EA0645054345EA0465AB4EF3
:1010A000361D356070BDAD4908667047820142EA61
:1010B0000172A64B84331A607047A849886670474E
:1010C00010B5830143EA016343EA02739F4C8834FD
:1010D000236010BDA14908677047A049C8647047E4
:1010E00002460020994B0833186820F0EC6042EA71
:1010F00001031843954B08331860704702460020DF
:10110000924B0833186820F0784042EA01031843F4
:101110008E4B083318607047014600208B4A083216
:10112000106820F0030008431060704787480830BB
:10113000006800F00C00704701460020834A083226
:10114000106820F0F000084310607047014600204E
:101150007E4A0832106820F4E0500843106070475F
:1011600001460020794A0832106820F4604040EAC5
:10117000C10010607047F0B5002100220024022554
:1011800000260223714F08373F6807F00C0121B198
:10119000042905D0082937D105E0724F076036E0F1
:1011A000714F076033E0694F3F1D3F68C7F38056BA
:1011B000664F3F1D3F6807F03F036EB16A4FB7FBB4
:1011C000F3F7DFF888C10CF1040CDCF800C0CCF3B5
:1011D000881C07FB0CF40CE0624FB7FBF3F7DFF859
:1011E0006CC10CF1040CDCF800C0CCF3881C07FBCC
:1011F0000CF4564F3F1D3F68C7F301477F1C7D002D
:10120000B4FBF5F7076002E0564F076000BF00BF70
:101210004E4F08373F6807F0F0010909534F7A5CD9
:101220000768D7404760494F08373F6807F4E051E7
:10123000890A4E4F7A5C4768D7408760434F08372A
:101240003F6807F46041490B484F7A5C4768D740D4
:10125000C760F0BD002100F44072B2F5407F0AD1B2
:101260003A4A0832116821F4F811414A0240114308
:10127000364A08321160354A70321268C0F30B03E7
:101280001A43324B70331A6070473549443908604D
:1012900070473349403908607047364908607047E5
:1012A00001460020294A8C32106820F01F004A1E97
:1012B0001043264A8C321060704701460020234AB2
:1012C0008C32106820F4F8504A1E40EA02201F4A6F
:1012D0008C3210607047014600201C4A8C32106826
:1012E00020F4401008431060704701460020174A60
:1012F0008C32106820F440000843106070470146AB
:101300000020124A8C32106820F4403008431060EC
:10131000704719490860704739B10C4A3032126879
:1013200002430A4B30331A6006E0084A3032126832
:101330008243064B30331A607047F9B1034A3432A6
:1013400012680243014B34331A601CE0003802403B
:10135000FFFFF6EA10300024003000200000474272
:10136000800E47420024F40000127A00440400205A
:10137000FFFCFF0F5C014742E01147428F4A1268B1
:1013800082438E4B1A60704739B18C4A121D126825
:1013900002438A4B1B1D1A6006E0884A121D126820
:1013A0008243864B1B1D1A60704739B1834A0C3249
:1013B00012680243814B0C331A6006E07F4A0C32FC
:1013C000126882437D4B0C331A60704739B17B4AF7
:1013D000103212680243794B10331A6006E0774AE4
:1013E000103212688243754B10331A60704739B15E
:1013F000724A243A12680243704B243B1A6006E09A
:101400006E4A243A126882436C4B243B1A60704740
:1014100039B16A4A203A12680243684B203B1A608D
:1014200006E0664A203A12688243644B203B1A6009
:10143000704739B1614A1C3A126802435F4B1C3B4A
:101440001A6006E05D4A1C3A126882435B4B1C3B03
:101450001A60704739B1594A143A12680243574B1F
:10146000143B1A6006E0554A143A12688243534B03
:10147000143B1A60704739B1504A103A126802435F
:101480004E4B103B1A6006E04C4A103A12688243F9
:101490004A4B103B1A60704739B1484A1C321268F7
:1014A0000243464B1C331A6006E0444A1C32126861
:1014B0008243424B1C331A60704739B13F4A203295
:1014C000126802433D4B20331A6006E03B4A20324B
:1014D00012688243394B20331A60704739B1374A5A
:1014E000243212680243354B24331A6006E0334A33
:1014F000243212688243314B24331A60704739B169
:101500002E4A2C32126802432C4B2C331A6006E010
:101510002A4A2C3212688243284B2C331A607047B7
:1015200039B1264A303212680243244B30331A60F4
:1015300006E0224A303212688243204B30331A6070
:101540007047012808D11D493C31096841F0080164
:101550001A4A3C32116007E018493C31096821F011
:101560000801164A3C321160704739B1134A273AD4
:1015700012780243114B273B1A7006E00F4A273AB4
:10158000127882430D4B273B1A7070470B4840304E
:10159000006840F08070094940310860704701469A
:1015A0000020064A283A12680A400AB1012000E0E9
:1015B00000207047014926390870704734380240CE
:1015C00010B50446FB48844208D101218014FFF77E
:1015D00052FF0021A014FFF74EFF3CE0F648844282
:1015E00008D101210014FFF735FF00212014FFF777
:1015F00031FF30E0F148844208D10121C013FFF7E8
:1016000029FF0021E013FFF725FF24E0EC48844286
:1016100008D101214014FFF72EFF00216014FFF7CD
:101620002AFF18E0E748844209D101210805FFF7A5
:1016300022FF00214FF48010FFF71DFF0BE0E2486E
:10164000844208D101214805FFF715FF00214FF41E
:101650000010FFF710FF10BD10B50022028802F441
:1016600041520B884C8823438C882343CC882343E6
:101670000C8923434C8923438C892343CC892343FE
:101680001A430280838B4FF2FF74234083830B8ABB
:10169000038210BD2DE9F04F0025022300244FF0F6
:1016A000010900220026002794469046B0F81CA0AD
:1016B0004FF2400B0AEA0B0AA0F81CA04FF0020AF6
:1016C000A0F820A0858BD1F808A0BAF1020F01D1B3
:1016D00000BF82E0B1F804A0BAF1000F02D14FF0D0
:1016E000010901E04FF00209DFF8E0A2DAF800A0FA
:1016F0000AF4000ABAF1000F09D0DFF8D0A2DAF834
:1017000000A02AF4000ADFF8C4B2CBF800A0DFF88A
:10171000BCA20AF17C0ADAF800A0CAF3881CDFF840
:10172000ACA20AF17C0ADAF800A0CAF30278DFF86A
:101730009CA2AAF1040ADAF800A00AF03F07DFF839
:101740008CA2AAF1040ADAF800A00AF4800ABAF519
:10175000800F08D1DFF878A2BAFBF7FA0AFB0CFA7F
:10176000BAFBF8F607E0DFF86CA2BAFBF7FA0AFB5F
:101770000CFABAFBF8F6B1F806A0BAF5007F0ED164
:101780004FEA162A0AEB8A0A4FEA4A0AD1F808B049
:10179000BAFBFBFA0AF1050A1FFA8AF20FE04FEAD8
:1017A000491AB6FBFAFA0AEB8A0A4FEA4A0AD1F852
:1017B00008B0BAFBFBFA0AF1050A1FFA8AF24FF0E9
:1017C0000A0AB2FBFAF202F00104A2EB040ACAF31D
:1017D0004F034FF6FF7A0AEA0424022B01DBFF2BAA
:1017E00001DD02230024B1F806A04AEA040A4AEA0D
:1017F000030AA0F820A0B1F804A0B1F80CB04AEA9E
:101800000B0AB1F802B04AEA0B0AB1F800B04AEA92
:101810000B0A4AF4006A4AEA05058583BDE8F08FA1
:101820000021018041808180C180018141818181CD
:10183000C1810721018270470021018041808180A0
:10184000C1800221816000218181704721B102881D
:1018500042F04002028004E002884FF6BF731A4053
:101860000280704721B1828B42F48062828304E05F
:10187000828B4FF6FF331A408283704702884FF203
:10188000FF731A40028002880A4302807047B1F554
:10189000804F04D1028842F48042028004E0028832
:1018A0004BF6FF731A40028070474FF6FF62914279
:1018B00004D0028842F48072028004E002884FF66D
:1018C000FF631A400280704721B1828842F004020F
:1018D000828004E082884FF6FB731A408280704752
:1018E00021B1828842F01002828004E082884FF6A3
:1018F000EF731A408280704730B500220023848B3A
:101900004FF240052C40848302240484828B0C888F
:10191000B4F5007F01D00C8814B94FF4807308E04F
:101920000C88B4F5407F03D00C88B4F5807F00D1DB
:1019300000238C888D892C434D882C431C4344F410
:1019400000642243828330BD0146888970478181CB
:10195000704721B1028842F40052028004E00288FC
:101960004DF6FF731A4002807047018841F48051A0
:101970000180704702460020012901D0108B00E051
:10198000908A70470146088A70471AB183880B43D2
:10199000838002E083888B438380704730B50024C6
:1019A00000230C110125A540ABB2AAB185881D43C7
:1019B000858014E00030014000380040003C0040C9
:1019C00000340140005001400054014008380240FA
:1019D00000127A000024F40085889D43858030BD84
:1019E0000246002013890B400BB1012000E00020CB
:1019F0007047CA4302817047F0B5024600200024B8
:101A00000023002501F00F070126BE40B4B20B11E0
:101A100001269E40B3B2968806EA03051689264041
:101A200016B10DB1012000E00020F0BD10B500227C
:101A300001F00F040123A3409AB2D343038110BDE8
:101A400010B50446FE48844208D101210846FFF73C
:101A500012FD00210120FFF70EFD9DE0B4F1804F43
:101A600008D101210846FFF7F5FC00210120FFF70E
:101A7000F1FC91E0F348844208D101210220FFF7F4
:101A8000E9FC00210220FFF7E5FC85E0EE488442F6
:101A900008D101210420FFF7DDFC00210420FFF71D
:101AA000D9FC79E0E948844208D101210820FFF7F8
:101AB000D1FC00210820FFF7CDFC6DE0E448844212
:101AC00008D101211020FFF7C5FC00211020FFF7ED
:101AD000C1FC61E0DF48844208D101212020FFF7EA
:101AE000B9FC00212020FFF7B5FC55E0DA4884421C
:101AF00008D101210220FFF7BEFC00210220FFF7E0
:101B0000BAFC49E0D548844209D101210804FFF715
:101B1000B2FC00214FF48030FFF7ADFC3CE0D04830
:101B2000844209D101214804FFF7A5FC00214FF4AC
:101B30000030FFF7A0FC2FE0CA48844209D1012100
:101B40008804FFF798FC00214FF48020FFF793FCF6
:101B500022E0C548844208D101214020FFF77AFCE9
:101B600000214020FFF776FC16E0C048844208D1EF
:101B700001218020FFF76EFC00218020FFF76AFC26
:101B80000AE0BB48844207D101218015FFF762FCBF
:101B90000021A015FFF75EFC10BD00220288A84BB3
:101BA00098420ED0AC4B98420BD0B0F1804F08D089
:101BB000A44B984205D0A44B984202D0A34B984224
:101BC00004D14FF68F731A404B881A43A04B9842AA
:101BD00007D0A04B984204D04FF6FF431A400B8920
:101BE0001A4302804B68C3620B880385944B98426A
:101BF00002D0994B984201D18B7A038601238382CC
:101C000070474FF0FF314160002101800181418028
:101C1000817270470185828270470A4600210188DF
:101C20004FF68F731940114301807047416270472E
:101C3000C16270470146486A70470146088D704787
:101C400021B1028842F00202028004E002884FF6CD
:101C5000FD731A400280704721B1028842F00402ED
:101C6000028004E002884FF6FB731A40028070473E
:101C700021B1028842F08002028004E002884FF61F
:101C80007F731A400280704702884FF6F7731A403C
:101C9000028002880A430280704702884FF6FF43A1
:101CA0001A40028002880A430280704721B10288EC
:101CB00042F00102028004E002884FF6FE731A40EF
:101CC0000280704770B5002400220023058C4FF677
:101CD000FE7635400584028C8388048B4FF68F7521
:101CE0002C40B51E2C400D882C43751E2A408D8932
:101CF0002A434D882A43524DA84202D0564DA8424D
:101D000013D14FF6F7752A40CD892A434FF6FB755C
:101D10002A408D882A434FF6FF652B404FF6FF552A
:101D20002B400D8A2B434D8A2B43838004838D687F
:101D30004563028470BD70B5002400220023058C29
:101D40004FF6EF7635400584028C8388048B48F685
:101D5000FF752C404FF6FF452C400D884FF6FF765F
:101D600006EA05252C434FF6DF752A408D8906EAE1
:101D700005152A434D8806EA05152A43304DA84229
:101D800002D0354DA8421DD14FF67F752A40CD892E
:101D90004FF6FF7606EA05152A434FF6BF752A402F
:101DA0008D8806EA05152A434FF6FF352B404FF282
:101DB000FF752B400D8A06EA85052B434D8A06EAFE
:101DC00085052B43838004838D688563028470BD01
:101DD00070B5002400220023058C4FF6FF663540C5
:101DE0000584028C8388848B4FF68F752C404FF6C8
:101DF000FC752C400D882C434FF6FF552A408D89E9
:101E00004FF6FF7606EA05252A434D8806EA0525A2
:101E10002A430B4DA84202D00F4DA84238D14FF2B1
:101E2000FF752A40CD894FF6FF7606EA05252A433D
:101E30004FF6FF352A408D8806EA05252A4319E02A
:101E4000000001400004004000080040000C004079
:101E50000010004000140040000401400040014018
:101E6000004401400048014000180040001C0040B0
:101E7000002000404EF6FF752B404DF6FF752B40BD
:101E80000D8A06EA05152B434D8A06EA05152B43F4
:101E9000838084838D68C563028470BD70B5002221
:101EA00000230024058C4EF6FF7635400584038C14
:101EB0008488828B48F6FF752A404FF6FF452A40FA
:101EC0000D884FF6FF7606EA05252A434DF6FF7585
:101ED0002B408D8906EA05352B434D8806EA0535EA
:101EE0002B43FE4DA84202D0FD4DA84208D14BF62F
:101EF000FF752C400D8A4FF6FF7606EA85152C43B8
:101F0000848082838D680564038470BD0021018014
:101F10004180818081608181C181018241827047DD
:101F200070B50346002000241846183001258D4066
:101F3000ACB21D8CA5431D8409B108290AD100EB60
:101F4000610005684FF68F763540056005681543DA
:101F500005600FE00D1FC5F34E052844056848F6DF
:101F6000FF763540056005684FF6FF7606EA0226E3
:101F70003543056070BD4163704781637047C1633D
:101F80007047016470470A460021018B4FF68F733A
:101F900019401143018370470A460021018B48F61E
:101FA000FF7319404FF6FF7303EA022319430183BD
:101FB00070470A460021818B4FF68F7319401143F9
:101FC000818370470A460021818B48F6FF731940D0
:101FD0004FF6FF7303EA02231943818370470A46D1
:101FE0000021018B4FF6F7731940114301837047AD
:101FF0000A460021018B4FF2FF7319404FF6FF7321
:1020000003EA02231943018370470A460021818BAA
:102010004FF6F77319401143818370470A46002138
:10202000818B4FF2FF7319404FF6FF7303EA0223CF
:102030001943818370470A460021018B4FF6FB73D9
:1020400019401143018370470A460021018B4FF666
:10205000FF3319404FF6FF7303EA0223194301834C
:1020600070470A460021818B4FF6FB7319401143DC
:10207000818370470A460021818B4FF6FF33194058
:102080004FF6FF7303EA02231943818370470A4620
:102090000021018B4FF67F73194011430183704774
:1020A0000A460021018BC1F30E014FF6FF7303EACC
:1020B00002231943018370470A460021818B4FF6A2
:1020C0007F7319401143818370470A460021818B39
:1020D000C1F30E014FF6FF7303EA02231943818314
:1020E00070470A460021018C4FF6FD7319401143D9
:1020F000018470470A460021018C4FF6F77319409E
:102100001143018470470A460021018C4FF6DF73AA
:1021100019404FF6FF7303EA021319430184704715
:102120000A460021018C4FF67F7319404FF6FF736A
:1021300003EA02131943018470470A460021018C07
:102140004FF6FF5319404FF6FF7303EA022319437A
:10215000018470470A460021018C4FF2FF73194039
:102160004FF6FF7303EA02231943018470470A46BE
:102170000021018C4DF6FF7319404FF6FF7303EAFF
:10218000023319430184704730B5002301248C4089
:10219000A3B2048C9C430484048C02FA01F5ADB212
:1021A0002C43048430BD30B5002304248C40A3B2FA
:1021B000048C9C430484048C02FA01F5ADB22C43D8
:1021C000048430BD828B4FF2FF331A408283828BAE
:1021D0004FF6FF7303EA01231A4382837047F0B579
:1021E0000C461546002100220026078C4EF6FF7C87
:1021F00007EA0C070784818B028C4FF6FF7707EA0A
:10220000043640F6FF4739404FF6FF7707EA0527C7
:1022100039434FF6FF7707EA0337394345F6FF772F
:102220003A4046F480573A4381830284F0BD828B62
:102230004FF6F3731A408283828B0A43828370477E
:10224000F0B50C461546002100220026078C4FF6FB
:10225000FF6C07EA0C070784818B028C4FF6FF772F
:1022600007EA04264FF60C7739404FF6FF7707EA66
:1022700003172F4339434FF2FF573A4046F4807714
:102280003A4381830284F0BD028B4FF2FF331A4040
:102290000283028B4FF6FF7303EA01231A43028382
:1022A0007047F0B50C461546002100220026078C29
:1022B0004FF6EF7C07EA0C070784018B028C4FF680
:1022C000FF7707EA041640F6FF4739404FF6FF77DD
:1022D00007EA033739434FF6FF7703E00000014078
:1022E0000004014007EA052739434FF65F773A407B
:1022F00046F010073A4301830284F0BD028B4FF68B
:10230000F3731A400283028B0A4302837047F0B5CD
:102310000C46154600210022068C4FF6FE773E4003
:102320000684018B028C4FF60C7631407E1C06EA47
:1023300003162E4331434FF6F576324044F0010642
:10234000324301830284F0BD70B505460C462088F7
:1023500050B92389A28861882846FFF7D8FFE18811
:102360002846FFF7CBFF25E0208804280AD12389DF
:10237000A28861882846FFF794FFE1882846FFF786
:1023800083FF17E0208808280AD12389A288618862
:102390002846FFF755FFE1882846FFF748FF09E088
:1023A0002389A28861882846FFF719FFE18828461B
:1023B000FFF708FF70BD002101804180012181806D
:1023C0000021C180018170472DE9F04105460C468E
:1023D00000260127608808B9022600E00026A088B0
:1023E000012801D1022700E001272088A0B9238914
:1023F000A28861882846FFF78AFFE1882846FFF710
:102400007DFF23893A4631462846FFF74AFFE18897
:102410002846FFF739FF13E02389A2886188284600
:10242000FFF73FFFE1882846FFF72EFF23893A4652
:1024300031462846FFF76BFFE1882846FFF75EFF2D
:10244000BDE8F0810146486B70470146886B7047D4
:102450000146C86B70470146086C70470A884B8874
:102460001A438B881A43CB881A430B891A434B892A
:102470001A438B891A43A0F8442070470021018039
:1024800041808180C180018141818181704731B16A
:10249000B0F8442042F40042A0F8442005E0B0F82F
:1024A0004420C2F30E02A0F84420704721B1828874
:1024B00042F00402828004E082884FF6FB731A40E7
:1024C0008280704721B1828842F00102828004E05C
:1024D00082884FF6FE731A40828070471AB1838952
:1024E0000B43838102E083898B4383817047818220
:1024F000704702460020138A0B400BB1012000E018
:1025000000207047CA430282704730B5024600205F
:1025100000230024158A05EA0103958905EA0104D0
:1025200013B10CB1012000E0002030BDCA4302828B
:10253000704741EA0203A0F8483070471AB1838916
:102540000B43838102E083898B438381704721B1F0
:10255000828842F00802828004E082884FF6F77396
:102560001A408280704701894FF6F872114001814C
:1025700070470A46002101894FF68F7319401143B5
:102580000181704730B504460D4629462046FFF7C5
:10259000F0FF208940F00700208130BD2DE9F04197
:1025A00004460D4616461F46602D06D13B460122C5
:1025B00031462046FFF775FE05E03B4601223146D5
:1025C0002046FFF7A4FE29462046FFF7D2FF2089C8
:1025D00040F007002081BDE8F08130B50C460021B5
:1025E0000189C9B24FF6FF7505EA03251543254356
:1025F0002943018130BD2DE9F04105460E461746BD
:102600009846002443463A4631462846FFF7E5FF00
:102610002C894FF6F870044044F007044FF68F7091
:10262000044044F070042C81BDE8F081F0B504460C
:102630000D4616461F463B46324629462046FFF7C2
:10264000CCFF208940F480402081F0BD82884FF685
:102650008F731A40828082880A4382807047028981
:102660004FF6F8731A40028102890A4302817047CB
:1026700002894FF67F731A40028102890A43028160
:102680007047F0B50C4615461E4600210022002377
:102690000189028B038C4FF6F877394021434FF6BE
:1026A000FC473A4040F201173A434FF6DD773B4092
:1026B0004FF6FF7707EA06172F433B43018102835A
:1026C0000384F0BD21B1828842F08002828004E060
:1026D00082884FF67F731A4082807047A0F85010AE
:1026E0007047000010B50446FA48844208D1012121
:1026F0001020FEF7C0FE00211020FEF7BCFE57E0C0
:10270000F548844209D101214804FEF7A3FE0021C7
:102710004FF40030FEF79EFE4AE0F048844209D1B3
:1027200001218804FEF796FE00214FF48020FEF779
:1027300091FE3DE0EA48844209D10121C804FEF738
:1027400089FE00214FF40020FEF784FE30E0E548CA
:10275000844209D101210805FEF77CFE00214FF4D7
:102760008010FEF777FE23E0DF48844208D1012184
:102770002020FEF780FE00212020FEF77CFE17E0DF
:10278000DA48844209D101218807FEF763FE00215F
:102790004FF08040FEF75EFE0AE0D548844207D144
:1027A00001214005FEF756FE00216005FEF752FEAE
:1027B00010BD2DE9FF4705460E460024A14600BF87
:1027C000A046B08900B100BF2C8A24F44054F088A0
:1027D00004432C82AC8941F20C608443B088318977
:1027E0000843718908430443AC81AC8A24F44074E3
:1027F000B0890443AC826846FEF7BDFCB54885420B
:1028000002D0B948854202D1DDF80C9001E0DDF834
:102810000890A88900F4004040B109EBC90000EB22
:10282000091031684900B0FBF1F707E009EBC90076
:1028300000EB091031688900B0FBF1F76420B7FBA9
:10284000F0F004012009642101FB1078A88900F44C
:10285000004040B1322000EBC800B0FBF1F000F0C6
:102860000700044308E0322000EB08106421B0FBAD
:10287000F1F000F00F0004432C81BDE8FF874FF416
:102880001651016000218180C18001810C214181AC
:1028900000218181704710B502460020108A20F483
:1028A00070600B884C8823438C882343CC88234357
:1028B0001843108210BD0021018041808180C180B9
:1028C000704721B1828942F40052828104E08289FA
:1028D0004DF6FF731A4082817047028B02F47F42EB
:1028E0000283028B0A430283704721B1828942F43A
:1028F0000042828103E08289C2F30E028281704726
:1029000021B1828A42F40062828204E0828A4FF21C
:10291000FF731A4082827047C1F3080282807047B9
:1029200001468888C0F308007047028A4FF6F073AA
:102930001A400282028A0A430282704721B18289C8
:1029400042F00202828104E082894FF6FD731A4050
:102950008281704782894FF2FF731A408281828997
:102960000A4382817047028A4FF6DF731A4002825F
:10297000028A0A430282704721B1028A42F48042ED
:10298000028204E0028A4BF6FF731A40028270470B
:10299000818941F001018181704721B1828A42F031
:1029A0000802828204E0828A4FF6F7731A4082821C
:1029B0007047028BD2B20283028B42EA0122028369
:1029C000704721B1828A42F02002828204E0828A2A
:1029D0004FF6DF731A408282704721B1828A42F03B
:1029E0001002828204E0828A4FF6EF731A408282DC
:1029F0007047828A4FF6FB731A408282828A0A43AA
:102A00008282704721B1828A42F00202828204E00F
:102A1000828A4FF6FD731A40828270471AB1838A08
:102A20000B43838202E0838A8B4383827047F0B535
:102A30000346002400260025002040F66A17B9420C
:102A400000D100BF1846C1F3421401F01F06012750
:102A500007FA06F5012C01D10C3004E0022C01D15B
:102A6000103000E014301AB107682F43076002E00D
:102A70000768AF430760F0BD02460020B1F5007F54
:102A800000D100BF13880B400BB1012000E00020F3
:102A9000704701F40072B2F5007F00D100BFCA4355
:102AA0000280704770B502460024002300250020F4
:102AB00040F66A16B14200D100BFC1F3421501F0E1
:102AC0001F03012606FA03F3012D13D19689334023
:102AD00017E00000001001400044004000480040A2
:102AE000004C0040005000400014014000780040BD
:102AF000007C0040022D02D1168A334001E0968A04
:102B000033400C12012606FA04F41688344013B13F
:102B10000CB1012000E0002070BD10B500220023A0
:102B200040F66A14A14200D100BF0A120124944069
:102B3000A3B2DC43048010BD10B500F04BF94FF494
:102B400080509E49088010BD2DE9F04107460C4693
:102B500015464FF480509949891C0880384600F08A
:102B60009EF94FF4805095490880891C0880002008
:102B700000F095F94FF4805090490880891C088036
:102B8000002605E0002000F08AF92880701CC6B2FB
:102B9000A642F7DB4FF4805088490880BDE8F081F9
:102BA00070B506460C464FF480508449891C088055
:102BB000304600F074F94FF48050804908800025B9
:102BC0000DE04FF480507D49891C0880002000F002
:102BD00066F94FF4805079490880681CC5B2A54257
:102BE000EFDB70BD70B505460C464FF4805073495D
:102BF000891C0880284600F052F920804FF480504C
:102C00006E49088070BD70B504460025224601213A
:102C10004FF46840FFF798FFA21C01214FF4694070
:102C2000FFF792FF221D01214FF46A40FFF78CFF4E
:102C3000A21D01214FF46B40FFF786FF04F108024B
:102C400001214FF46C40FFF77FFF00BF06E034F82E
:102C500015105BA002F0DCF8681CC5B2052DF6DB90
:102C600058A002F0D5F870BD10B514214FF47F4084
:102C7000FFF796FF14214FF4AA40FFF791FF10BD14
:102C800010B50A214FF47F40FFF78AFF002148F278
:102C9000DE00FFF785FF002148F22010FFF780FFDC
:102CA000002148F22820FFF77BFF002148F2023084
:102CB000FFF776FF002148F28040FFF771FF002107
:102CC0004FF40540FFF76CFF00214FF40640FFF77B
:102CD00067FF00214FF40740FFF762FF002148F62D
:102CE0002100FFF75DFF00214FF40940FFF758FF77
:102CF000002148F62520FFF753FF00214FF40B4039
:102D0000FFF74EFF002148F61140FFF749FF002171
:102D10004FF40D40FFF744FF002148F6FF60FFF736
:102D20003FFF002148F6FF70FFF73AFF00214FF404
:102D30001040FFF735FF00214FF41140FFF730FF3F
:102D40000A214FF47F40FFF72BFF10BD70B58AB00A
:102D5000002424221C4901A802F027FA0A214FF47A
:102D60007F40FFF71DFF00BF21E001A931F81400EB
:102D70000121FFF715FF4FF480501049891C08808E
:102D8000002000F08CF8C5B24FF480500B49088049
:102D900029460EA002F03CF801A810F81400A84241
:102DA00001D1012601E0002603E0601CC4B2122C10
:102DB000DBDB00BF30460AB070BD000018040240E3
:102DC000256300000D0A00006454000825780D0AF0
:102DD0000000000000B587B001210220FEF79CFA38
:102DE00001218803FEF7E1FA4FF4604000900220D1
:102DF0008DF8040000208DF8060001208DF80700F2
:102E000003208DF8050069463148FDF7E7FF0522EC
:102E10000D212F48FEF76DF805220E212C48FEF7F4
:102E200068F805220F212A48FEF763F84FF4805016
:102E3000009001208DF8040000208DF8060003208A
:102E40008DF8050001208DF8070069462048FDF740
:102E5000C5FF0020ADF808004FF48270ADF80A00FD
:102E60004FF40060ADF80C000020ADF80E00ADF896
:102E700010004FF40070ADF812000020ADF81400FF
:102E8000ADF816000720ADF8180002A91148FEF7AA
:102E9000E3FB01210F48FEF7D9FC07B000BD014656
:102EA00000BF0C480830008800F002000028F8D06D
:102EB00008480C30018000BF06480830008800F048
:102EC00001000028F8D003480C300088704700004B
:102ED000000402400038004010B5044600BF082C32
:102EE00002DD4FF0FF3010BD00BFA100491C4FF4C0
:102EF000807202EBC100102101F0D4FB00BFA100E1
:102F0000491C4FF4807202EBC10001F0B1FB0028B4
:102F1000F5D1A100491C4FF4007202EBC1001F2142
:102F200001F0C0FB0120A040FB4909888143FA4819
:102F300001800020F94921F81400F949085500BF23
:102F4000A100491C4FF4407202EBC10001F090FB5C
:102F50000028F5D10120C6E72DE9F04104460E46D0
:102F600017461D4600BF082C03DD4FF0FF30BDE8BB
:102F7000F08100BF012E04D0022E03D0042E03D115
:102F800001E000BF00BF02E06FF00400EFE700BF08
:102F900005F0060010B16FF00500E8E705B3012E5B
:102FA00002D0022E1AD106E005F0210010B96FF010
:102FB0000500DCE713E005F0200028B105F08000F3
:102FC00010B96FF00500D2E705F0100028B105F048
:102FD000800010B96FF00500C9E700E000BF00BF36
:102FE0002046FFF779FF05F0F00242EA0601A20051
:102FF000521C002303EBC20001F054FB7FB9C94807
:1030000007880088401CC7490880084600884FF69A
:10301000F071884203D14FF44040C2490880391210
:10302000A200521C4FF4806303EBC20001F03AFB94
:10303000F9B2A200521C4FF4806303EBC20202F506
:10304000807001F02FFBA100491C4FF4807202EB4D
:10305000C100012101F026FB00BFA100491C4FF473
:10306000807202EBC10001F003FB0028F5D105F0EE
:103070000100A040AC4909880843AB490880012001
:10308000A040A54909888143A34801800020A349A5
:1030900021F81400A249085500BFA100491C4FF4B3
:1030A000407202EBC10001F0E3FA0028F5D060B2F3
:1030B0005DE710B5044600BF082C02DD4FF0FF307D
:1030C00010BD00BF00BFA100491C002202EBC100DF
:1030D00001F0CEFA00F00F00012802D06FF00400DA
:1030E000EEE700BF00BFA100491C4FF4407202EBA5
:1030F000C10001F0BDFA132802D06FF00200DFE733
:1031000000BFA100491C4FF4807202EBC1000221F4
:1031100001F0C8FA00BFA100491C4FF4807202EB15
:10312000C10001F0A5FA0028F5D10EE0A100491C6C
:103130004FF4807202EBC10001F09AFA28B92046E0
:10314000FFF7CAFE6FF00300BAE7A100491C4FF475
:10315000407202EBC10001F08BFA1428E6D1012085
:10316000AEE770B504460D46164600BF082C02DDDA
:103170004FF0FF3070BD00BF00BFA100491C00220E
:1031800002EBC10001F074FA00F00F00012802D038
:103190006FF00400EEE700BF00BFA100491C4FF430
:1031A000407202EBC10001F063FA132802D06FF005
:1031B0000200DFE700BF2978687861F31F2001462D
:1031C000A87861F31F200146287861F31F2001468B
:1031D000481C00B111B96FF00B00CBE716B96FF0C6
:1031E0000A00C7E7A100491C4FF4406202EBC1008E
:1031F0000422294601F08DFA3112A200521C4FF42C
:10320000805303EBC20001F04DFAF1B2A200521C50
:103210004FF4805303EBC20202F5807001F042FAD2
:10322000A100491C4FF4807202EBC100042101F09F
:1032300039FA00BFA100491C4FF4807202EBC100B3
:1032400001F016FA0028F5D10120A040364909887E
:10325000084008B100208DE716E0A100491C4FF49A
:10326000007202EBC10001F003FA00F0080058B14F
:10327000A100491C4FF4007202EBC100082101F0CB
:1032800011FA6FF00C0075E7A100491C4FF4407271
:1032900002EBC10001F0ECF91728DED1012069E74B
:1032A00010B5044600BF082C02DD4FF0FF3010BD02
:1032B00000BF00BFA100491C002202EBC10001F0C9
:1032C000D7F900F00F00012802D06FF00400EEE7FC
:1032D00000BFA100491C4FF4807202EBC10008211D
:1032E00001F0E0F900BFA100491C4FF4807202EB2D
:1032F000C10001F0BDF90028F5D10120A040064928
:1033000009888143044801800120A04006490988BA
:10331000084058B10020CAE768080020C80800200B
:103320006A080020640800206608002010E0A10060
:10333000491C4FF4007202EBC10001F099F900F052
:10334000080028B12046FFF7C7FD6FF00C00AEE77C
:10335000A100491C4FF4407202EBC10001F088F952
:103360000028E4D10120A2E72DE9F0410446884677
:1033700015460026002700BF082C02DD701EBDE8A0
:10338000F08100BF00BFA100491C002202EBC10078
:1033900001F06EF900F00F00012802D06FF0040078
:1033A000EDE700BF00BF15B96FF00D00E7E700BF04
:1033B000A100491C4FF4407202EBC10001F058F922
:1033C0000646172E04D01C2E02D06FF00600D6E75A
:1033D0000120A040FE490988084040B3A100491CD3
:1033E0004FF4007202EBC10001F042F900F01F0639
:1033F00006F0100080B1A100491C4FF4007202EBEE
:10340000C100102101F04EF90120A040F0490988C7
:103410008143EF4801800AE006F0080028B1204609
:10342000FFF75AFD6FF00C00A9E70020A7E7A10005
:10343000491C4FF4F85202EBC10001F019F94FF6A4
:10344000FF7101EA8027BD4200DD3D4623E02046B2
:1034500001F078F90746A100491C4FF4407202EBD5
:10346000C10001F005F90646172E07D01C2E05D025
:103470002046FFF731FD6FF0060080E70120A040F5
:10348000D4490988084018B1BD4201DD002076E723
:10349000BD4200DC00E0DAE700BF2A464146204694
:1034A00001F0BCF9A100491C4FF4807202EBC1008D
:1034B000202101F0F7F800BFA100491C4FF48072F1
:1034C00002EBC10001F0D4F80028F5D10120A040A2
:1034D000BF4909880843BE49088028464FE72DE9BF
:1034E000F0470446884616460027002500BF082CF2
:1034F00002DD681EBDE8F08700BF00BFA100491CC7
:10350000002202EBC10001F0B3F800F00F00012827
:1035100002D06FF00400EDE700BF00BF16B96FF0F6
:103520000D00E7E700BFA100491C4FF4F05202EB89
:10353000C10001F09DF84FF6FF7101EA8025B54208
:1035400000DA2E4638E0204601F032F90546A100A7
:10355000491C4FF4407202EBC10001F089F80746A4
:10356000172F1ED01C2F16D105B126E0204601F0E2
:10357000E9F88146A100491C4FF4F85202EBC10062
:1035800001F076F8B9EB802F0BD12046FFF7A4FCB1
:103590006FF00600AEE72046FFF79EFC6FF00600D6
:1035A000A8E70120A0408B490988084010B10DB957
:1035B00000209FE705B100E0C5E700BFB54200DA93
:1035C0002E4632464146204601F06AF9A100491CC8
:1035D0004FF4807202EBC100402101F063F800BF9C
:1035E000A100491C4FF4807202EBC10001F040F8C9
:1035F0000028F5D130467DE72DE9F84F05461646FF
:103600009946DDF828A0002700200090002480467D
:103610004FF6FF707049A1F80604A900491C4FF449
:10362000406202EBC1000422494601F072F84FEA01
:103630002A21AA00521C4FF4805303EBC20001F070
:1036400031F80AF0FF01AA00521C4FF4805303EB3B
:10365000C20202F5807001F025F8A900491C4FF460
:10366000105202EBC10101F5807001F001F88346B0
:10367000A900491C4FF4105202EBC10000F0F8FF02
:103680000BEB002087B23902A800801C01EBC008B8
:1036900048F0040808F47F40C8F3074108434E4946
:1036A000088008F0FF004880F01C80B24B49086099
:1036B000F01C80B249491831086047484749203119
:1036C000086000204549083108604448143000680B
:1036D00040F400504149143108604048001F006820
:1036E00040F400503D49091F0860FCF7CBFD012163
:1036F0003A481430FDF7F4F901213848001FFDF76E
:10370000EFF9032400200090ACE02046621C94B244
:10371000314A02EB40010020FFF764FA2046621CA8
:1037200094B22D4A02EB40014FF48070FFF75AFA31
:103730002046621C94B2284A02EB40014FF400700C
:10374000FFF750FA2046621C94B2234A02EB400174
:103750004FF44070FFF746FA2046621C94B21E4AAE
:1037600002EB40014FF48060FFF73CFA2046621CF8
:1037700094B2194A02EB40014FF4A060FFF732FA0D
:103780002046621C94B2144A02EB40014FF4C06020
:10379000FFF728FA2046621C94B20F4A02EB400160
:1037A0004FF4E060FFF71EFA2046621C94B20A4A0A
:1037B00002EB40014FF40060FFF714FA2046621C50
:1037C00094B2054A02EB40014FF4106008E000009B
:1037D00068080020660800205C0400204464024061
:1037E000FFF700FA2046621C94B2F74A02EB400150
:1037F0004FF42060FFF7F6F92046621C94B2F24ABB
:1038000002EB40014FF43060FFF7ECF92046621CF8
:1038100094B2ED4A02EB40014FF44060FFF7E2F949
:103820002046621C94B2E84A02EB40014FF450601B
:10383000FFF7D8F92046621C94B2E34A02EB40013C
:103840004FF46060FFF7CEF92046621C94B2DE4A66
:1038500002EB40014FF47060FFF7C4F90098401C80
:1038600080B2009000982028FFF64FAF00BF4FF0C5
:10387000C051D648FDF791F90028F8D000BF4FF0AD
:103880008151D2481838FDF788F90028F7D0FCF7A5
:10389000FDFC4FF0C051CD48FDF79BF94FF0815131
:1038A000CA481838FDF795F90021C848FDF718F9FE
:1038B0000021C6481838FDF713F9C4480068C34909
:1038C0000860C24818380068C04918390860B8193B
:1038D00087B23912AA00521C4FF4105303EBC200F6
:1038E00000F0E0FEF9B2AA00521C4FF4105303EBB3
:1038F000C20202F5807000F0D5FEA900491C4FF409
:10390000807202EBC100202100F0CCFE3046BDE801
:10391000F88F2DE9FC4704468A4616461F46DDF817
:103920002880002500BF082C02DD681EBDE8FC874A
:1039300000BFA100491C002202EBC10000F098FE6C
:10394000814600F00F00022802D0042802D100E0D6
:1039500000BF02E06FF00400E8E700BF00BF16B947
:103960006FF00D00E2E700BF994830F81400E8B9A5
:103970001AE0204600F01CFF0546A100491C4FF448
:10398000407202EBC10000F073FE10B96FF003004B
:10399000CCE70120A0408F490988084010B10DB93B
:1039A0000020C3E705B100E0E3E700BF00208A493B
:1039B000085509F00700022802D004287DD157E0FD
:1039C000834830F81400E8BB08226946204600F01E
:1039D00067FFA100491C4FF4807202EBC100402137
:1039E00000F060FE00BFA100491C4FF4807202EBA2
:1039F000C10000F03DFE0028F5D19DF800003870B0
:103A00009DF8010078709DF80200B8709DF80300E1
:103A1000F8709DF80400A8F800009DF8050098F8DB
:103A2000001000EB0120A8F800009DF8060068498E
:103A300021F814009DF8070011F8141000EB012084
:103A4000634900E004E021F8140080206249085531
:103A50005F4830F81400B04201DD354602E05C48B2
:103A600030F814502A465146204600F019FF55E020
:103A7000574830F81400A8BB02226946204600F0DF
:103A80000FFFA100491C4FF4807202EBC1004021DE
:103A900000F008FE00BFA100491C4FF4807202EB49
:103AA000C10000F0E5FD0028F5D19DF8000048496F
:103AB00021F814009DF8010000E027E011F814102F
:103AC00000EB0120424921F81400084630F81400A8
:103AD00040F2EA51884206DD2046FFF7FDF96FF417
:103AE0007A7023E702E080203B490855384830F8D7
:103AF0001400B04201DD354602E0354830F814507C
:103B00002A465146204600F0CBFE07E029462046D3
:103B100000F008FF2E4820F8145000BF00BFA1009D
:103B2000491C4FF4807202EBC100402100F0BAFD45
:103B300000BFA100491C4FF4807202EBC10000F0ED
:103B400097FD0028F5D1224830F81400401B204989
:103B500021F81400084630F8140028B11E48005D12
:103B600040F001001C4908552846DFE62DE9F041E8
:103B700004460E461546002700BF082C02DD781EBD
:103B8000BDE8F08100BF082E6FD2DFE806F0042701
:103B90002E3C4A5C687B2F78012F07D10120A04082
:103BA0000C49098808430B4908800BE03FB9012004
:103BB000A0400849098881430648018002E06FF06F
:103BC0000900DDE76DE000005C040020586402405D
:103BD000C8080020660800206A080020F94800880C
:103BE000204100F0010028705BE0A100491C4FF467
:103BF000F85202EBC10000F03BFD4FF6FF7101EA05
:103C0000802028804DE0A100491C4FF4F05202EBC7
:103C1000C10000F02DFD4FF6FF7101EA80202880E1
:103C20003FE028781F2802DD6FF00900A8E72A7816
:103C300002F01F01A200521C4FF4007303EBC200FC
:103C400000F030FD2DE0A100491C4FF4007202EBA2
:103C5000C10000F00DFD00F01F00287021E0287861
:103C60001F2803DD6FF009008AE717E02A7802F0C9
:103C70001F01A200521C4FF4305303EBC20000F0AE
:103C800011FD0EE0A100491C4FF4305202EBC100BF
:103C900000F0EEFC00F01F00287000BF6FF009007C
:103CA0006EE700BF01206BE770B504460E4615466F
:103CB00000BF082C02DD4FF0FF3070BD00BF082EA2
:103CC00076D2DFE806F0B2040E182E394F98297824
:103CD000A200521C4FF4B05303EBC20000F0E2FC10
:103CE000A6E02978A200521C4FF4A85303EBC200AF
:103CF00000F0D8FC9CE02A881112A200521C4FF45C
:103D0000905303EBC20000F0CDFC2978A200521CB6
:103D10004FF4905303EBC20202F5807000F0C2FC36
:103D200086E0A100491C4FF4406202EBC10004226E
:103D3000294600F0EEFC7BE02A881112A200521CFA
:103D40004FF4805303EBC20000F0ACFC2978A200D2
:103D5000521C4FF4805303EBC20202F5807000F056
:103D6000A1FC65E000BFA100491C002202EBC100DC
:103D700000F07EFC00F00F00012802D06FF004007C
:103D80009BE700BFA100491C4FF43C5202EBC1006D
:103D900000F06EFC10B16FF001008EE7A100491C2D
:103DA0004FF4807202EBC100222100F07BFC17E08F
:103DB0003BE0A100491C4FF4007202EBC10000F08F
:103DC00057FC00F0080058B1A100491C4FF40072E4
:103DD00002EBC100082100F065FC6FF00C006CE7FD
:103DE000A100491C4FF4807202EBC10000F040FCBE
:103DF0000028DED11CE000BFA100491C002202EB1C
:103E0000C10000F035FC00F00F00012802D06FF077
:103E1000040052E700BF2978A200521C4FF43C5323
:103E200003EBC20000F03EFC02E06FF0090044E743
:103E300000BF012041E72DE9F04104460E4615463A
:103E400000BF082C03DD4FF0FF30BDE8F08100BF5C
:103E50000D2E6FD2DFE806F007121C263D48BC5F2E
:103E60007A7F848EA100A100491C002202EBC100D0
:103E700000F0FEFB00F0F0002870ACE0A100491C4F
:103E80004FF4B05202EBC10000F0F2FB2870A2E048
:103E9000A100491C4FF4A85202EBC10000F0E8FB5E
:103EA000287098E0A100491C4FF4905202EBC10128
:103EB00001F5807000F0DCFB0746A100491C4FF4BF
:103EC000905202EBC10000F0D3FB07EB00202870FA
:103ED00000BFA100491C4FF4406202EBC100042264
:103EE000294600F0F9FB76E0A100491C4FF480520E
:103EF00002EBC10101F5807000F0BAFB0746A1009A
:103F0000491C4FF4805202EBC10000F0B1FB07EBFB
:103F1000002028805FE000BFA100491C002202EBC6
:103F2000C10000F0A5FB00F00F00012803D06FF0E6
:103F300004008AE74CE000BFA100491C4FF43C524A
:103F400002EBC10000F094FB288044E0204600F022
:103F5000F9FB288000BF204600F02AFC288000BF23
:103F6000A100491C4FF4407202EBC10000F080FB3D
:103F7000287030E0A100491C002202EBC10000F0D3
:103F800077FB012804D1204600F012FC288003E0D2
:103F90000D4830F8140028801DE000BFA100491C26
:103FA000002202EBC10000F063FB00F00F000128CB
:103FB00002D06FF0040048E700BF0448005D28709D
:103FC00009E0000066080020C80800206A080020F8
:103FD0006FF0010039E700BF012036E770477047F6
:103FE000704770470146087870470170704700209D
:103FF000704770477047704700B141B9AFF2230274
:10400000FA4B9A60AFF22903F84AD36002E0F74A0C
:104010009060D160704700B141B9AFF23B02F34B01
:104020001A61AFF24103F14A536102E0EF4A1061B5
:104030005161704700BFED4A128802F48072002A75
:10404000F9D000B141B9AFF26302E84B9A61AFF227
:104050006503E64AD36102E0E44A9061D1617047AA
:1040600000BFE24A128802F40072002AF9D000B1BF
:1040700041B9AFF28502DD4B9A61AFF28903DB4AA9
:10408000D36102E0D94A9061D161704710B54FF415
:10409000385000F0EDFA00F0010008B1012400E012
:1040A0000024204610BD10B500244FF4385000F015
:1040B000DFFA00F0300008B1012400E000242046BF
:1040C00010BD10B54FF4385000F0D2FA044624F079
:1040D000800421464FF4385000F0E4FA4FF4385091
:1040E00000F0C6FA044644F0800421464FF43850EC
:1040F00000F0D8FA10BD70B5054600244FF43850D2
:1041000000F0B6FA044604F0400010B94FF0FF305A
:1041100070BD24F03804012D02D144F0300401E0D8
:1041200044F0380421464FF4385000F0BBFAFFF752
:10413000C8FF4FF4385000F09BFA0446012D04D11B
:1041400004F0300030B10020E2E704F0380008B19C
:104150000020DDE74FF0FF30DAE770B504460025B8
:104160004FF4385000F084FA0546C5F380102070F3
:1041700005F03800202802D0382803D100BF0120E4
:10418000607002E00020607000BF00BF05F03800E2
:10419000102805D0182802D0202804D100BF00BF65
:1041A0000120A07002E00020A07000BF00BF05F059
:1041B0003800082805D0182802D0202804D100BFD4
:1041C00000BF0120E07002E00020E07000BF00BFEF
:1041D00070BD70B5054600242878012802D144F04E
:1041E000400401E024F040046878012802D144F042
:1041F000380412E0E878012808D1A878012802D113
:1042000044F0180409E044F0080406E0A878012806
:1042100002D144F0100400E000BF21464FF43850B2
:1042200000F040FAFFF74DFF70BD70B50026002486
:1042300000254FF4B05000F01BFA06464FF4C05072
:1042400000F016FA0446254606EB052085B22846FE
:1042500070BD70B50446E5B2261229464FF4B05041
:1042600000F020FA31464FF4C05000F01BFA70BD48
:1042700070B50026002400254FF4A85000F0F8F98E
:1042800000F0F0064FF4B85000F0F2F9044625466D
:1042900006EB052085B2284670BD70B50446E5B230
:1042A000261205F0F0014FF4A85000F0FBF931465A
:1042B0004FF4B85000F0F6F970BD00B585B0062295
:1042C00069464FF4106000F007FA042204A9900137
:1042D00000F002FA042203A94FF4A06000F0FCF9F8
:1042E000042202A94FF4706000F0F6F9802100204A
:1042F00000F0D8F9002000F0BBF9062269464FF41F
:10430000106000F006FA042204A9900100F001FAFE
:10431000042203A94FF4A06000F0FBF9042202A9D3
:104320004FF4706000F0F5F905B000BD2DE9F041E3
:1043300005460E460027FFF7C0FFF5B100BF002479
:1043400004E0285D384447B2601C44B2082CF8DB16
:10435000102F03DD4FF0FF30BDE8F08100240AE0AC
:10436000295DA200521C4FF4F85303EBC20000F089
:1043700099F9601C44B2082CF2DBEEB1002700244E
:1043800004E0305D384447B2601C44B2082CF8DBCE
:10439000102F02DD4FF0FF30DEE700240AE0315D30
:1043A000A200521C4FF4F05303EBC20000F07AF964
:1043B000601C44B2082CF2DB0020CDE72DE9FC4163
:1043C00006460C460025002000900190102E7CD25D
:1043D000DFE806F0080E1D19212529354254575BE8
:1043E0005F606470FFF769FF72E0000074080020EE
:1043F0001CB10094009808300190DDE90001FFF73E
:1044000095FFBDE8FC812088FFF747FF60E0FFF7DC
:104410002FFF20805CE02088FFF71BFF58E0FFF7AC
:1044200004FF208054E0208801124FF4985000F0DF
:1044300039F921784FF4A05000F034F948E04FF4F6
:10444000A05000F015F907464FF4985000F010F90D
:1044500007EB002020803BE0824880782070814874
:10446000C07860707F480079A0707E484079E07025
:104470007C48807920710020607129E0FFF721FEDF
:1044800026E02046FFF7A5FE22E02046FFF765FE66
:104490001EE01DE02078FFF72EFEB2E7FFF703FED7
:1044A000C5B268B2401C18B94FF0FF30A9E70CE064
:1044B00025700DE0FFF7EAFDC5B268B2401C10B9E7
:1044C0004FF0FF309DE7257002E04FF0FF3098E796
:1044D00000BF002095E770B504464FF4D85000F0B7
:1044E000C7F820704FF4D05000F0C2F805464FF4E2
:1044F000C85000F0BDF805EB0020608070BD10B51D
:10450000044621784FF4D85000F0CCF860880112AE
:104510004FF4C85000F0C6F8A1784FF4D05000F026
:10452000C1F810BD10B5002000F0A2F810BD70B5A4
:104530000446002524F03A0008B1681E70BD002032
:1045400000F096F8054625432946002000F0AAF819
:104550000020F3E710B50446062221464FF4106010
:1045600000F0BAF8042204F10E01900100F0B4F852
:10457000042204F10A014FF4A06000F0ADF8042217
:10458000A11D4FF4706000F0A7F837480078A074C0
:1045900035484178E17481782175C1786175334877
:1045A0000078A07510BD10B50446062221464FF4D0
:1045B000106000F0AEF8042204F10E01900100F04A
:1045C000A8F8042204F10A014FF4A06000F0A1F859
:1045D0000422A11D4FF4706000F09BF8A07C2249DA
:1045E0000870E07C4870207D8870607DC870A07D78
:1045F0001E49087010BD70B505460C46062D1CD22C
:10460000DFE805F003070B0F13172046FFF7CBFF7A
:1046100016E02046FFF79EFF12E02078FFF787FFA5
:1046200070BDFFF77FFF20700AE02046FFF767FFAD
:1046300006E02046FFF74FFF02E04FF0FF30EFE7C4
:1046400000BF0020ECE770B504464FF4385000F08E
:104650000FF80546C5F38000E070C5F34000A07078
:1046600070BD000074080020940800209808002005
:104670001CB50446C5498868804700BF200C8DF8EA
:104680000000200A8DF80100E0B28DF8020001223E
:1046900001A9684600F0D6FABC49C86880479DF871
:1046A00004001CBD13B582B00446B8498868804731
:1046B00044F00404200C8DF80400200A8DF8050055
:1046C000E0B28DF80600012203A901A800F05FFA0C
:1046D000AE49C86880471FBD2DE9F84304460D4622
:1046E00016460027B846A94988688047200C8DF8EF
:1046F0000000200A8DF80100E0B28DF80200324679
:104700002946684600F09EFAA049C8688047BDE87F
:10471000F8832DE9F84304460D4616460027B846AF
:1047200044F00404200C8DF80000200A8DF80100EC
:10473000E0B28DF8020032462946684600F027FABA
:10474000BDE8F88370B504460025002600BFA1002F
:10475000491C4FF4005202EBC100FFF789FF0646E7
:10476000A100491C4FF4005202EBC10101F5807019
:10477000FFF77EFF00EB062086B2AEB1A100491C18
:104780004FF4005202EBC100FFF772FF0546A10093
:10479000491C4FF4005202EBC10101F58070FFF794
:1047A00067FF00EB052085B2B542D0D1284670BD29
:1047B00070B504460025002600BFA100491C4FF437
:1047C000185202EBC100FFF753FF0646A100491C37
:1047D0004FF4185202EBC10101F58070FFF748FF5A
:1047E00000EB062086B2AEB1A100491C4FF418526E
:1047F00002EBC100FFF73CFF0546A100491C4FF446
:10480000185202EBC10101F58070FFF731FF00EB98
:10481000052085B2B542D0D1284670BD2DE9F047BC
:1048200004460F4616460025A8460EB9BDE8F08797
:10483000A100491C4FF4105202EBC10101F5807038
:10484000FFF716FF8146A100491C4FF4105202EBFE
:10485000C100FFF70DFF09EB002085B22902A0007F
:10486000801C01EBC008324639464046FFF751FF35
:10487000A81985B22912A200521C4FF4105303EB61
:10488000C200FFF70FFFE9B2A200521C4FF4105311
:1048900003EBC20202F58070FFF704FF00BFC5E71B
:1048A0002DE9F04704460F4616460025A8460EB9E6
:1048B000BDE8F087A100491C4FF4205202EBC10172
:1048C00001F58070FFF7D4FE8146A100491C4FF42A
:1048D000205202EBC100FFF7CBFE09EB002085B2AE
:1048E0002902A000C01C01EBC008324639464046F0
:1048F000FFF7F2FEA81985B22912A200521C4FF44C
:10490000205303EBC200FFF7CDFEE9B2A200521C18
:104910004FF4205303EBC20202F58070FFF7C2FE92
:1049200000BFC5E72DE9F04104460E460025A10071
:10493000491C4FF4205202EBC10101F58070FFF7D2
:1049400097FE0746A100491C4FF4205202EBC1001C
:10495000FFF78EFE07EB002085B2A81985B2291259
:10496000A200521C4FF4205303EBC200FFF79AFE43
:10497000E9B2A200521C4FF4205303EBC20202F52D
:104980008070FFF78FFEBDE8F08100007408002002
:104990001CB54FF4C060009002208DF804008DF823
:1049A000050001208DF8070069462648FCF716FA35
:1049B000E020009002208DF804008DF80500002012
:1049C0008DF8060002208DF8070069461D48FCF7A7
:1049D00005FA0420009000208DF804008DF80700EF
:1049E00069461848FCF7FAF91820009001208DF864
:1049F000040002208DF8050069461248FCF7EEF924
:104A000010211048FCF766FA08210E48FCF762FAFC
:104A1000072209210B48FCF76CFA07220A210948F2
:104A2000FCF767FA052211460648FCF762FA0522F0
:104A300007210448FCF75DFA052206210148FCF72E
:104A400058FA1CBD0000024010B501210648FCF7D1
:104A500063FC012141F21000FCF7B8FC012108467B
:104A6000FCF7A3FC10BD00000100400000B585B0BC
:104A70000020ADF800004FF48270ADF80200002075
:104A8000ADF80400ADF80600ADF808004FF4007072
:104A9000ADF80A000020ADF80C00ADF80E000720BC
:104AA000ADF8100069469648FCF7D6FD9548FBF72F
:104AB0003BFF94481838FBF737FF00209249C86243
:104AC000086348634FF480608861002048628C4826
:104AD0000C30486000208863C861086248614FF468
:104AE000003088624FF0C06008604020C860854890
:104AF000FBF7BCFF4FF0C060834908600020C8602E
:104B000080481838FBF7B2FF012211467C48FCF7B9
:104B10003CFF012202217A48FCF737FF0121784847
:104B2000FCF794FE05B000BD10B5044600BF02219D
:104B30007348FCF755FF0028F9D021467048FCF770
:104B400006FF00BF01216E48FCF74AFF0028F9D09C
:104B50006B48FCF7F9FEC0B210BD10B500BF0221D2
:104B60006748FCF73DFF0028F9D000216448FCF7B6
:104B7000EEFE00BF01216248FCF732FF0028F9D0A9
:104B80005F48FCF7E1FEC0B210BD704770472DE9E9
:104B9000F04104460F46154620785C49087060785D
:104BA0004870A0788870002605E0B95DF01C574A6F
:104BB0001154701C86B2AE42F7DBE81C80B251493A
:104BC000091D0860E81C80B24E49143908604F483E
:104BD0004C490C3108604B490C390860FBF752FB1B
:104BE00001214848FBF77CFF012146481838FBF7B4
:104BF00077FF00BF4FF0C0514248FBF7CEFF0028BF
:104C0000F8D000BF4FF081513E481838FBF7C5FF80
:104C10000028F7D0FBF73AFB4FF0C0513948FBF7BB
:104C2000D8FF4FF0815137481838FBF7D2FF0021E9
:104C30003448FBF755FF002132481838FBF750FF86
:104C4000BDE8F08170B505460E461446E11C2F48BC
:104C500000F0FFFAE11C2E4800F0D9FA28782B4921
:104C6000087068784870A8788870E01C80B2254980
:104C700014390860E01C80B22249091D08602348ED
:104C800020490C31086022481E490C390860FBF7A6
:104C9000F9FA01211B48FBF723FF012119481838B5
:104CA000FBF71EFF00BF4FF0C0511648FBF775FF22
:104CB0000028F8D000BF4FF0815112481838FBF798
:104CC0006CFF0028F7D0FBF7E1FA4FF0C0510D4818
:104CD000FBF77FFF4FF081510A481838FBF779FF47
:104CE00000210848FBF7FCFE002106481838FBF7B6
:104CF000F7FE22460649C91C304600F011FA70BD85
:104D00000030014058640240D808002014090020F7
:104D10001A0D002008B51C208DF8000003208DF826
:104D2000010000208DF8020001208DF80300684684
:104D3000FBF78FFD4FF47A7022494860002008800D
:104D4000088148804FF08040FCF727FF01222F2187
:104D50009007FCF75FFF01218807FCF7A7FF0122FE
:104D600011469007FDF7BAFB08BD10B50121880771
:104D7000FDF7CBFB012817D101218007FDF7D6FBFA
:104D8000114801880088401C0F4A1080B1F57A7FD5
:104D900005DB00201146088001200C4908700C48F2
:104DA0000088401C0A49088010BD084800787047F8
:104DB0000649087070470648008870470449088013
:104DC00070470000201100209C0800209A08002055
:104DD0009E0800201FB54FF4E13000900020ADF890
:104DE0000400ADF80600ADF80800ADF80C000C208A
:104DF000ADF80A0069460448FDF7DBFC01210248D2
:104E0000FDF75FFD1FBD000000100140704700006E
:104E10000FB4044910B503AA029800F0B3FA10BC0D
:104E20005DF814FB2804002070B50446856900680D
:104E3000C10601D5302600E02026C00707D070BD8E
:104E4000D4E9012130469047206A401C20626D1E43
:104E5000F6D570BD70B5044685690078C00707D1E6
:104E600070BDD4E9012120209047206A401C2062B7
:104E70006D1EF6D570BD70B50C460546012A05D0ED
:104E80002878800600D5EA69002302E0012305E0C6
:104E90005B1C934202D2E05C0028F9D1A869E618B5
:104EA000C01AA861286A184428622846FFF7BCFF88
:104EB00004E0D5E9012114F8010B9047B442F8D37E
:104EC0002846FFF7C7FF70BD2DE9F04106460024D4
:104ED00010687529314616A510D0AFF30080002860
:104EE00002DA404213A507E031688A0701D512A50E
:104EF00002E0490704D511A5012401E0AFF30080C9
:104F000000210A2206F1240709E0B0FBF2FCB0FB05
:104F1000F2F302FB1C00303078541846491C00287C
:104F2000F3D123462A463046BDE8F04100F0BBB934
:104F3000000000002D0000002B00000020000000F9
:104F400070B504460D4621461068AFF300802188F5
:104F5000090502D50F4A7A4402E00E4A7A440E321D
:104F6000002104F1240305E000F00F060009965D1E
:104F70005E54491C0028F7D120780023000704D58F
:104F8000702D02D009B1022311322046BDE87040D5
:104F900000F089B92E0500002DE9F05F894604462E
:104FA0004FF0000ADFF874B1FB44C0F820A020469F
:104FB000E1688847002874D0252806D0D4E901216B
:104FC0009047206A401C2062F1E700265F46204699
:104FD000E16888472028054607DB312D05D278197E
:104FE00010F8200C08B10643F1E7B00701D526F010
:104FF0000406C4F81CA00027C4F818A02A2D09D064
:10500000284600F01BFA38B304EB8708303DC8F897
:10501000185019E059F8041B204604EB87029161EF
:10502000E1688847012F054618D1E069002820DA99
:1050300026F020061DE0D8F8180000EB800005EBF4
:1050400040003038C8F818002046E1688847054617
:1050500000F0F4F90028EED1012F0AD02E2D08D14E
:105060002046E16888477F1C0546022F46F020064F
:10507000C4DBA069002803DA404246F00106A061C3
:10508000F00701D026F010066C2D0BD0682D09D04A
:105090004C2D39D06A2D35D0742D35D07A2D33D0A2
:1050A00016E038E0E1682F4620468847B8420546BA
:1050B00009D16C2F26D04FF48060E168064320466A
:1050C0008847054604E06C2F1AD04FF480700643E1
:1050D0000DB3A5F14100192802D8203546F4006629
:1050E0004A462946204626604E46FBF7A7F880B17F
:1050F00001280BD0F61D26F0070000F1080956E73D
:105100004020E4E78020D8E70020D6E706F1040934
:105110004DE7284652E7206ABDE8F09F04050000ED
:10512000032A40F2308010F0030C00F0158011F8D3
:10513000013BBCF1020F624498BF11F801CB00F8AB
:10514000013B38BF11F8013BA2F1040298BF00F8FF
:1051500001CB38BF00F8013B11F0030300F02580BC
:10516000083AC0F0088051F8043B083A51F804CBE3
:10517000A0E80810F5E7121D5CBF51F8043B40F8A9
:10518000043BAFF30080D20724BF11F8013B11F8B4
:1051900001CB48BF11F8012B24BF00F8013B00F8F8
:1051A00001CB48BF00F8012B704710B5203AC0F082
:1051B0000B80B1E81850203AA0E81850B1E8185018
:1051C000A0E81850BFF4F5AF5FEA027C24BFB1E855
:1051D0001850A0E8185044BF18C918C0BDE81040C6
:1051E0005FEA827C24BF51F8043B40F8043B08BFCF
:1051F0007047D20728BF31F8023B48BF11F8012B96
:1052000028BF20F8023B48BF00F8012B70474FF041
:1052100000020429C0F0128010F0030C00F01B8083
:10522000CCF1040CBCF1020F18BF00F8012BA8BF91
:1052300020F8022BA1EB0C0100F00DB85FEAC17C55
:1052400024BF00F8012B00F8012B48BF00F8012B08
:1052500070474FF0000200B5134694469646203939
:1052600022BFA0E80C50A0E80C50B1F12001BFF41F
:10527000F7AF090728BFA0E80C5048BF0CC05DF885
:1052800004EB890028BF40F8042B08BF704748BFD3
:1052900020F8022B11F0804F18BF00F8012B704747
:1052A0007047704770472DE9F0470D469946924682
:1052B000044600F124080168880604D5E06921F05D
:1052C0001001216000E00120A84201DD471B00E041
:1052D0000027A1697A1902EB0900081AA061207859
:1052E000C00602D42046FFF79FFD002608E0D4E95F
:1052F00001211AF806009047206A401C761C2062A3
:105300004E45F4DB2078C0060AD52046FFF78CFD19
:1053100006E0D4E9012130209047206A401C206239
:10532000381EA7F10107F4DC07E0D4E9012118F8E1
:1053300005009047206A401C2062281EA5F1010547
:10534000F3DC2046FFF786FD2078000602D5022018
:10535000BDE8F0870120FBE710B5436913B1AFF357
:10536000008001E0FFF787FD012010BD127800F1F9
:1053700024010A7000224A700122EDE711684FF003
:10538000FF32E9E7074B70B50D467B4400F011F89A
:1053900004462846FBF7CAF810B14FF0FF3070BD45
:1053A000204670BD87B1FFFF01694A1C0261087881
:1053B000704700B58FB0CDE9013100210591054955
:1053C0007944CDE9031011466846FFF7E5FD0FB0BB
:1053D00000BD0000E5FFFFFF754600F02BF8AE466C
:1053E00005006946534620F00700854618B020B5F1
:1053F000FBF718FABDE820404FF000064FF0000719
:105400004FF000084FF0000B21F00701AC46ACE86C
:10541000C009ACE8C009ACE8C009ACE8C0098D46D9
:10542000704710B50446AFF300802046BDE8104039
:10543000FAF721BF004870474011002030380A2891
:1054400001D201207047002070474FF04070E1EE1C
:10545000100A704702020202020202020202020263
:1054600002020202DE80208128820283808400857D
:105470000086008721880089258A008B118C008D89
:10548000FF8EFF8F00900091303132333435363744
:105490003839414243444546403058003031323378
:1054A0003435363738396162636465664030780078
:1054B00004000008000000000000000200010000DD
:1054C00010000000E454000800000020A0080000C4
:1054D000C401000868550008A0080020000F000063
:1054E0002002000861000CFF02030102030405060C
:1054F00007080901FF01FF01F915C0A8017313B8DE
:105500000B1E08DC1111110D2D58FFFFFF151B019B
:105510000801C201847A030A68090102030406072C
:1055200008090C79103B0C0C504114FFFF011202CA
:10553000120312041205120612071208392F01FF76
:1055400001FF01FF01F1E2C01008010257353530BB
:105550003013DD3F1B08DF041AE1041AE3041AE5E7
:08556000041AEB04C100000075
:040000050800018965
:00000001FF
